{
  "_format": "hh-sol-artifact-1",
  "contractName": "MyToken",
  "sourceName": "contracts/ERC_20.sol",
  "abi": [
    {
      "inputs": [
        {
          "internalType": "address",
          "name": "admin",
          "type": "address"
        }
      ],
      "stateMutability": "nonpayable",
      "type": "constructor"
    },
    {
      "inputs": [],
      "name": "AccessControlBadConfirmation",
      "type": "error"
    },
    {
      "inputs": [
        {
          "internalType": "address",
          "name": "account",
          "type": "address"
        },
        {
          "internalType": "bytes32",
          "name": "neededRole",
          "type": "bytes32"
        }
      ],
      "name": "AccessControlUnauthorizedAccount",
      "type": "error"
    },
    {
      "inputs": [
        {
          "internalType": "address",
          "name": "spender",
          "type": "address"
        },
        {
          "internalType": "uint256",
          "name": "allowance",
          "type": "uint256"
        },
        {
          "internalType": "uint256",
          "name": "needed",
          "type": "uint256"
        }
      ],
      "name": "ERC20InsufficientAllowance",
      "type": "error"
    },
    {
      "inputs": [
        {
          "internalType": "address",
          "name": "sender",
          "type": "address"
        },
        {
          "internalType": "uint256",
          "name": "balance",
          "type": "uint256"
        },
        {
          "internalType": "uint256",
          "name": "needed",
          "type": "uint256"
        }
      ],
      "name": "ERC20InsufficientBalance",
      "type": "error"
    },
    {
      "inputs": [
        {
          "internalType": "address",
          "name": "approver",
          "type": "address"
        }
      ],
      "name": "ERC20InvalidApprover",
      "type": "error"
    },
    {
      "inputs": [
        {
          "internalType": "address",
          "name": "receiver",
          "type": "address"
        }
      ],
      "name": "ERC20InvalidReceiver",
      "type": "error"
    },
    {
      "inputs": [
        {
          "internalType": "address",
          "name": "sender",
          "type": "address"
        }
      ],
      "name": "ERC20InvalidSender",
      "type": "error"
    },
    {
      "inputs": [
        {
          "internalType": "address",
          "name": "spender",
          "type": "address"
        }
      ],
      "name": "ERC20InvalidSpender",
      "type": "error"
    },
    {
      "inputs": [
        {
          "internalType": "address",
          "name": "owner",
          "type": "address"
        }
      ],
      "name": "OwnableInvalidOwner",
      "type": "error"
    },
    {
      "inputs": [
        {
          "internalType": "address",
          "name": "account",
          "type": "address"
        }
      ],
      "name": "OwnableUnauthorizedAccount",
      "type": "error"
    },
    {
      "anonymous": false,
      "inputs": [
        {
          "indexed": true,
          "internalType": "address",
          "name": "owner",
          "type": "address"
        },
        {
          "indexed": true,
          "internalType": "address",
          "name": "spender",
          "type": "address"
        },
        {
          "indexed": false,
          "internalType": "uint256",
          "name": "value",
          "type": "uint256"
        }
      ],
      "name": "Approval",
      "type": "event"
    },
    {
      "anonymous": false,
      "inputs": [
        {
          "indexed": true,
          "internalType": "address",
          "name": "previousOwner",
          "type": "address"
        },
        {
          "indexed": true,
          "internalType": "address",
          "name": "newOwner",
          "type": "address"
        }
      ],
      "name": "OwnershipTransferred",
      "type": "event"
    },
    {
      "anonymous": false,
      "inputs": [
        {
          "indexed": true,
          "internalType": "bytes32",
          "name": "role",
          "type": "bytes32"
        },
        {
          "indexed": true,
          "internalType": "bytes32",
          "name": "previousAdminRole",
          "type": "bytes32"
        },
        {
          "indexed": true,
          "internalType": "bytes32",
          "name": "newAdminRole",
          "type": "bytes32"
        }
      ],
      "name": "RoleAdminChanged",
      "type": "event"
    },
    {
      "anonymous": false,
      "inputs": [
        {
          "indexed": true,
          "internalType": "bytes32",
          "name": "role",
          "type": "bytes32"
        },
        {
          "indexed": true,
          "internalType": "address",
          "name": "account",
          "type": "address"
        },
        {
          "indexed": true,
          "internalType": "address",
          "name": "sender",
          "type": "address"
        }
      ],
      "name": "RoleGranted",
      "type": "event"
    },
    {
      "anonymous": false,
      "inputs": [
        {
          "indexed": true,
          "internalType": "bytes32",
          "name": "role",
          "type": "bytes32"
        },
        {
          "indexed": true,
          "internalType": "address",
          "name": "account",
          "type": "address"
        },
        {
          "indexed": true,
          "internalType": "address",
          "name": "sender",
          "type": "address"
        }
      ],
      "name": "RoleRevoked",
      "type": "event"
    },
    {
      "anonymous": false,
      "inputs": [
        {
          "indexed": true,
          "internalType": "address",
          "name": "from",
          "type": "address"
        },
        {
          "indexed": true,
          "internalType": "address",
          "name": "to",
          "type": "address"
        },
        {
          "indexed": false,
          "internalType": "uint256",
          "name": "value",
          "type": "uint256"
        }
      ],
      "name": "Transfer",
      "type": "event"
    },
    {
      "inputs": [],
      "name": "DEFAULT_ADMIN_ROLE",
      "outputs": [
        {
          "internalType": "bytes32",
          "name": "",
          "type": "bytes32"
        }
      ],
      "stateMutability": "view",
      "type": "function"
    },
    {
      "inputs": [],
      "name": "ETH",
      "outputs": [
        {
          "internalType": "uint256",
          "name": "",
          "type": "uint256"
        }
      ],
      "stateMutability": "view",
      "type": "function"
    },
    {
      "inputs": [
        {
          "internalType": "address",
          "name": "account",
          "type": "address"
        }
      ],
      "name": "NotAllowMinter",
      "outputs": [],
      "stateMutability": "nonpayable",
      "type": "function"
    },
    {
      "inputs": [],
      "name": "SPECIAL_ROLE",
      "outputs": [
        {
          "internalType": "bytes32",
          "name": "",
          "type": "bytes32"
        }
      ],
      "stateMutability": "view",
      "type": "function"
    },
    {
      "inputs": [
        {
          "internalType": "address",
          "name": "owner",
          "type": "address"
        },
        {
          "internalType": "address",
          "name": "spender",
          "type": "address"
        }
      ],
      "name": "allowance",
      "outputs": [
        {
          "internalType": "uint256",
          "name": "",
          "type": "uint256"
        }
      ],
      "stateMutability": "view",
      "type": "function"
    },
    {
      "inputs": [
        {
          "internalType": "address",
          "name": "spender",
          "type": "address"
        },
        {
          "internalType": "uint256",
          "name": "value",
          "type": "uint256"
        }
      ],
      "name": "approve",
      "outputs": [
        {
          "internalType": "bool",
          "name": "",
          "type": "bool"
        }
      ],
      "stateMutability": "nonpayable",
      "type": "function"
    },
    {
      "inputs": [
        {
          "internalType": "address",
          "name": "account",
          "type": "address"
        }
      ],
      "name": "balanceOf",
      "outputs": [
        {
          "internalType": "uint256",
          "name": "",
          "type": "uint256"
        }
      ],
      "stateMutability": "view",
      "type": "function"
    },
    {
      "inputs": [],
      "name": "decimals",
      "outputs": [
        {
          "internalType": "uint8",
          "name": "",
          "type": "uint8"
        }
      ],
      "stateMutability": "view",
      "type": "function"
    },
    {
      "inputs": [
        {
          "internalType": "bytes32",
          "name": "role",
          "type": "bytes32"
        }
      ],
      "name": "getRoleAdmin",
      "outputs": [
        {
          "internalType": "bytes32",
          "name": "",
          "type": "bytes32"
        }
      ],
      "stateMutability": "view",
      "type": "function"
    },
    {
      "inputs": [
        {
          "internalType": "bytes32",
          "name": "role",
          "type": "bytes32"
        },
        {
          "internalType": "address",
          "name": "account",
          "type": "address"
        }
      ],
      "name": "grantRole",
      "outputs": [],
      "stateMutability": "nonpayable",
      "type": "function"
    },
    {
      "inputs": [
        {
          "internalType": "bytes32",
          "name": "role",
          "type": "bytes32"
        },
        {
          "internalType": "address",
          "name": "account",
          "type": "address"
        }
      ],
      "name": "hasRole",
      "outputs": [
        {
          "internalType": "bool",
          "name": "",
          "type": "bool"
        }
      ],
      "stateMutability": "view",
      "type": "function"
    },
    {
      "inputs": [
        {
          "internalType": "uint256",
          "name": "amount",
          "type": "uint256"
        }
      ],
      "name": "mint",
      "outputs": [],
      "stateMutability": "payable",
      "type": "function"
    },
    {
      "inputs": [],
      "name": "name",
      "outputs": [
        {
          "internalType": "string",
          "name": "",
          "type": "string"
        }
      ],
      "stateMutability": "view",
      "type": "function"
    },
    {
      "inputs": [],
      "name": "owner",
      "outputs": [
        {
          "internalType": "address",
          "name": "",
          "type": "address"
        }
      ],
      "stateMutability": "view",
      "type": "function"
    },
    {
      "inputs": [],
      "name": "renounceOwnership",
      "outputs": [],
      "stateMutability": "nonpayable",
      "type": "function"
    },
    {
      "inputs": [
        {
          "internalType": "bytes32",
          "name": "role",
          "type": "bytes32"
        },
        {
          "internalType": "address",
          "name": "callerConfirmation",
          "type": "address"
        }
      ],
      "name": "renounceRole",
      "outputs": [],
      "stateMutability": "nonpayable",
      "type": "function"
    },
    {
      "inputs": [
        {
          "internalType": "bytes32",
          "name": "role",
          "type": "bytes32"
        },
        {
          "internalType": "address",
          "name": "account",
          "type": "address"
        }
      ],
      "name": "revokeRole",
      "outputs": [],
      "stateMutability": "nonpayable",
      "type": "function"
    },
    {
      "inputs": [
        {
          "internalType": "bytes4",
          "name": "interfaceId",
          "type": "bytes4"
        }
      ],
      "name": "supportsInterface",
      "outputs": [
        {
          "internalType": "bool",
          "name": "",
          "type": "bool"
        }
      ],
      "stateMutability": "view",
      "type": "function"
    },
    {
      "inputs": [],
      "name": "symbol",
      "outputs": [
        {
          "internalType": "string",
          "name": "",
          "type": "string"
        }
      ],
      "stateMutability": "view",
      "type": "function"
    },
    {
      "inputs": [],
      "name": "totalSupply",
      "outputs": [
        {
          "internalType": "uint256",
          "name": "",
          "type": "uint256"
        }
      ],
      "stateMutability": "view",
      "type": "function"
    },
    {
      "inputs": [
        {
          "internalType": "address",
          "name": "to",
          "type": "address"
        },
        {
          "internalType": "uint256",
          "name": "value",
          "type": "uint256"
        }
      ],
      "name": "transfer",
      "outputs": [
        {
          "internalType": "bool",
          "name": "",
          "type": "bool"
        }
      ],
      "stateMutability": "nonpayable",
      "type": "function"
    },
    {
      "inputs": [
        {
          "internalType": "address",
          "name": "from",
          "type": "address"
        },
        {
          "internalType": "address",
          "name": "to",
          "type": "address"
        },
        {
          "internalType": "uint256",
          "name": "value",
          "type": "uint256"
        }
      ],
      "name": "transferFrom",
      "outputs": [
        {
          "internalType": "bool",
          "name": "",
          "type": "bool"
        }
      ],
      "stateMutability": "nonpayable",
      "type": "function"
    },
    {
      "inputs": [
        {
          "internalType": "address",
          "name": "newOwner",
          "type": "address"
        }
      ],
      "name": "transferOwnership",
      "outputs": [],
      "stateMutability": "nonpayable",
      "type": "function"
    },
    {
      "inputs": [],
      "name": "withdraw",
      "outputs": [],
      "stateMutability": "nonpayable",
      "type": "function"
    }
  ],
  "bytecode": "0x60806040523480156200001157600080fd5b5060405162002b8738038062002b87833981810160405281019062000037919062000450565b806040518060400160405280600781526020017f4d79546f6b656e000000000000000000000000000000000000000000000000008152506040518060400160405280600281526020017f524d0000000000000000000000000000000000000000000000000000000000008152508160039081620000b59190620006fc565b508060049081620000c79190620006fc565b505050600073ffffffffffffffffffffffffffffffffffffffff168173ffffffffffffffffffffffffffffffffffffffff16036200013f5760006040517f1e4fbdf7000000000000000000000000000000000000000000000000000000008152600401620001369190620007f4565b60405180910390fd5b6200015081620001a060201b60201c565b50620001666000801b826200026660201b60201c565b50600a620001796200036a60201b60201c565b600a620001879190620009a1565b62000193919062000a21565b6007819055505062000a59565b6000600660009054906101000a900473ffffffffffffffffffffffffffffffffffffffff16905081600660006101000a81548173ffffffffffffffffffffffffffffffffffffffff021916908373ffffffffffffffffffffffffffffffffffffffff1602179055508173ffffffffffffffffffffffffffffffffffffffff168173ffffffffffffffffffffffffffffffffffffffff167f8be0079c531659141344cd1fd0a4f28419497f9722a3daafe3b4186f6b6457e060405160405180910390a35050565b60006200027a83836200037360201b60201c565b6200035f5760016005600085815260200190815260200160002060000160008473ffffffffffffffffffffffffffffffffffffffff1673ffffffffffffffffffffffffffffffffffffffff16815260200190815260200160002060006101000a81548160ff021916908315150217905550620002fb620003de60201b60201c565b73ffffffffffffffffffffffffffffffffffffffff168273ffffffffffffffffffffffffffffffffffffffff16847f2f8788117e7eff1d82e926ec794901d17c78024a50270940304540a733656f0d60405160405180910390a46001905062000364565b600090505b92915050565b60006012905090565b60006005600084815260200190815260200160002060000160008373ffffffffffffffffffffffffffffffffffffffff1673ffffffffffffffffffffffffffffffffffffffff16815260200190815260200160002060009054906101000a900460ff16905092915050565b600033905090565b600080fd5b600073ffffffffffffffffffffffffffffffffffffffff82169050919050565b60006200041882620003eb565b9050919050565b6200042a816200040b565b81146200043657600080fd5b50565b6000815190506200044a816200041f565b92915050565b600060208284031215620004695762000468620003e6565b5b6000620004798482850162000439565b91505092915050565b600081519050919050565b7f4e487b7100000000000000000000000000000000000000000000000000000000600052604160045260246000fd5b7f4e487b7100000000000000000000000000000000000000000000000000000000600052602260045260246000fd5b600060028204905060018216806200050457607f821691505b6020821081036200051a5762000519620004bc565b5b50919050565b60008190508160005260206000209050919050565b60006020601f8301049050919050565b600082821b905092915050565b600060088302620005847fffffffffffffffffffffffffffffffffffffffffffffffffffffffffffffffff8262000545565b62000590868362000545565b95508019841693508086168417925050509392505050565b6000819050919050565b6000819050919050565b6000620005dd620005d7620005d184620005a8565b620005b2565b620005a8565b9050919050565b6000819050919050565b620005f983620005bc565b620006116200060882620005e4565b84845462000552565b825550505050565b600090565b6200062862000619565b62000635818484620005ee565b505050565b5b818110156200065d57620006516000826200061e565b6001810190506200063b565b5050565b601f821115620006ac57620006768162000520565b620006818462000535565b8101602085101562000691578190505b620006a9620006a08562000535565b8301826200063a565b50505b505050565b600082821c905092915050565b6000620006d160001984600802620006b1565b1980831691505092915050565b6000620006ec8383620006be565b9150826002028217905092915050565b620007078262000482565b67ffffffffffffffff8111156200072357620007226200048d565b5b6200072f8254620004eb565b6200073c82828562000661565b600060209050601f8311600181146200077457600084156200075f578287015190505b6200076b8582620006de565b865550620007db565b601f198416620007848662000520565b60005b82811015620007ae5784890151825560018201915060208501945060208101905062000787565b86831015620007ce5784890151620007ca601f891682620006be565b8355505b6001600288020188555050505b505050505050565b620007ee816200040b565b82525050565b60006020820190506200080b6000830184620007e3565b92915050565b7f4e487b7100000000000000000000000000000000000000000000000000000000600052601160045260246000fd5b60008160011c9050919050565b6000808291508390505b60018511156200089f5780860481111562000877576200087662000811565b5b6001851615620008875780820291505b8081029050620008978562000840565b945062000857565b94509492505050565b600082620008ba57600190506200098d565b81620008ca57600090506200098d565b8160018114620008e35760028114620008ee5762000924565b60019150506200098d565b60ff84111562000903576200090262000811565b5b8360020a9150848211156200091d576200091c62000811565b5b506200098d565b5060208310610133831016604e8410600b84101617156200095e5782820a90508381111562000958576200095762000811565b5b6200098d565b6200096d84848460016200084d565b9250905081840481111562000987576200098662000811565b5b81810290505b9392505050565b600060ff82169050919050565b6000620009ae82620005a8565b9150620009bb8362000994565b9250620009ea7fffffffffffffffffffffffffffffffffffffffffffffffffffffffffffffffff8484620008a8565b905092915050565b7f4e487b7100000000000000000000000000000000000000000000000000000000600052601260045260246000fd5b600062000a2e82620005a8565b915062000a3b83620005a8565b92508262000a4e5762000a4d620009f2565b5b828204905092915050565b61211e8062000a696000396000f3fe60806040526004361061014b5760003560e01c8063715018a6116100b6578063a217fddf1161006f578063a217fddf14610485578063a9059cbb146104b0578063bf051c13146104ed578063d547741f14610518578063dd62ed3e14610541578063f2fde38b1461057e5761014b565b8063715018a6146103945780638322fff2146103ab5780638da5cb5b146103d657806391d148541461040157806395d89b411461043e578063a0712d68146104695761014b565b80632f2ff15d116101085780632f2ff15d1461029a578063313ce567146102c357806334a940f7146102ee57806336568abe146103175780633ccfd60b1461034057806370a08231146103575761014b565b806301ffc9a71461015057806306fdde031461018d578063095ea7b3146101b857806318160ddd146101f557806323b872dd14610220578063248a9ca31461025d575b600080fd5b34801561015c57600080fd5b50610177600480360381019061017291906117a1565b6105a7565b60405161018491906117e9565b60405180910390f35b34801561019957600080fd5b506101a2610621565b6040516101af9190611894565b60405180910390f35b3480156101c457600080fd5b506101df60048036038101906101da919061194a565b6106b3565b6040516101ec91906117e9565b60405180910390f35b34801561020157600080fd5b5061020a6106d6565b6040516102179190611999565b60405180910390f35b34801561022c57600080fd5b50610247600480360381019061024291906119b4565b6106e0565b60405161025491906117e9565b60405180910390f35b34801561026957600080fd5b50610284600480360381019061027f9190611a3d565b61070f565b6040516102919190611a79565b60405180910390f35b3480156102a657600080fd5b506102c160048036038101906102bc9190611a94565b61072f565b005b3480156102cf57600080fd5b506102d8610751565b6040516102e59190611af0565b60405180910390f35b3480156102fa57600080fd5b5061031560048036038101906103109190611b0b565b61075a565b005b34801561032357600080fd5b5061033e60048036038101906103399190611a94565b610790565b005b34801561034c57600080fd5b5061035561080b565b005b34801561036357600080fd5b5061037e60048036038101906103799190611b0b565b6108ac565b60405161038b9190611999565b60405180910390f35b3480156103a057600080fd5b506103a96108f4565b005b3480156103b757600080fd5b506103c0610908565b6040516103cd9190611999565b60405180910390f35b3480156103e257600080fd5b506103eb61090e565b6040516103f89190611b47565b60405180910390f35b34801561040d57600080fd5b5061042860048036038101906104239190611a94565b610938565b60405161043591906117e9565b60405180910390f35b34801561044a57600080fd5b506104536109a3565b6040516104609190611894565b60405180910390f35b610483600480360381019061047e9190611b62565b610a35565b005b34801561049157600080fd5b5061049a610ba6565b6040516104a79190611a79565b60405180910390f35b3480156104bc57600080fd5b506104d760048036038101906104d2919061194a565b610bad565b6040516104e491906117e9565b60405180910390f35b3480156104f957600080fd5b50610502610bd0565b60405161050f9190611a79565b60405180910390f35b34801561052457600080fd5b5061053f600480360381019061053a9190611a94565b610bf4565b005b34801561054d57600080fd5b5061056860048036038101906105639190611b8f565b610c16565b6040516105759190611999565b60405180910390f35b34801561058a57600080fd5b506105a560048036038101906105a09190611b0b565b610c9d565b005b60007f7965db0b000000000000000000000000000000000000000000000000000000007bffffffffffffffffffffffffffffffffffffffffffffffffffffffff1916827bffffffffffffffffffffffffffffffffffffffffffffffffffffffff1916148061061a575061061982610d23565b5b9050919050565b60606003805461063090611bfe565b80601f016020809104026020016040519081016040528092919081815260200182805461065c90611bfe565b80156106a95780601f1061067e576101008083540402835291602001916106a9565b820191906000526020600020905b81548152906001019060200180831161068c57829003601f168201915b5050505050905090565b6000806106be610d8d565b90506106cb818585610d95565b600191505092915050565b6000600254905090565b6000806106eb610d8d565b90506106f8858285610da7565b610703858585610e3b565b60019150509392505050565b600060056000838152602001908152602001600020600101549050919050565b6107388261070f565b61074181610f2f565b61074b8383610f43565b50505050565b60006012905090565b610762611035565b61078c7f70f9579eddccc70623d7ac4e27adf179eecac23fd1787cc1cd54998ff92d9caf82610f43565b5050565b610798610d8d565b73ffffffffffffffffffffffffffffffffffffffff168173ffffffffffffffffffffffffffffffffffffffff16146107fc576040517f6697b23200000000000000000000000000000000000000000000000000000000815260040160405180910390fd5b61080682826110bc565b505050565b610813611035565b60004790506000811161085b576040517f08c379a000000000000000000000000000000000000000000000000000000000815260040161085290611c7b565b60405180910390fd5b61086361090e565b73ffffffffffffffffffffffffffffffffffffffff166108fc829081150290604051600060405180830381858888f193505050501580156108a8573d6000803e3d6000fd5b5050565b60008060008373ffffffffffffffffffffffffffffffffffffffff1673ffffffffffffffffffffffffffffffffffffffff168152602001908152602001600020549050919050565b6108fc611035565b61090660006111af565b565b60075481565b6000600660009054906101000a900473ffffffffffffffffffffffffffffffffffffffff16905090565b60006005600084815260200190815260200160002060000160008373ffffffffffffffffffffffffffffffffffffffff1673ffffffffffffffffffffffffffffffffffffffff16815260200190815260200160002060009054906101000a900460ff16905092915050565b6060600480546109b290611bfe565b80601f01602080910402602001604051908101604052809291908181526020018280546109de90611bfe565b8015610a2b5780601f10610a0057610100808354040283529160200191610a2b565b820191906000526020600020905b815481529060010190602001808311610a0e57829003601f168201915b5050505050905090565b610a667f70f9579eddccc70623d7ac4e27adf179eecac23fd1787cc1cd54998ff92d9caf610a61610d8d565b610938565b15610aa6576040517f08c379a0000000000000000000000000000000000000000000000000000000008152600401610a9d90611ce7565b60405180910390fd5b60008111610ae9576040517f08c379a0000000000000000000000000000000000000000000000000000000008152600401610ae090611d79565b60405180910390fd5b60075481610af79190611dc8565b3414610b38576040517f08c379a0000000000000000000000000000000000000000000000000000000008152600401610b2f90611e56565b60405180910390fd5b6000610b42610d8d565b90506000610b4e610751565b600a610b5a9190611fa9565b83610b659190611dc8565b9050610b718282611275565b60006064600a83610b829190611dc8565b610b8c9190612023565b9050610ba083610b9a61090e565b83610e3b565b50505050565b6000801b81565b600080610bb8610d8d565b9050610bc5818585610e3b565b600191505092915050565b7f70f9579eddccc70623d7ac4e27adf179eecac23fd1787cc1cd54998ff92d9caf81565b610bfd8261070f565b610c0681610f2f565b610c1083836110bc565b50505050565b6000600160008473ffffffffffffffffffffffffffffffffffffffff1673ffffffffffffffffffffffffffffffffffffffff16815260200190815260200160002060008373ffffffffffffffffffffffffffffffffffffffff1673ffffffffffffffffffffffffffffffffffffffff16815260200190815260200160002054905092915050565b610ca5611035565b600073ffffffffffffffffffffffffffffffffffffffff168173ffffffffffffffffffffffffffffffffffffffff1603610d175760006040517f1e4fbdf7000000000000000000000000000000000000000000000000000000008152600401610d0e9190611b47565b60405180910390fd5b610d20816111af565b50565b60007f01ffc9a7000000000000000000000000000000000000000000000000000000007bffffffffffffffffffffffffffffffffffffffffffffffffffffffff1916827bffffffffffffffffffffffffffffffffffffffffffffffffffffffff1916149050919050565b600033905090565b610da283838360016112f7565b505050565b6000610db38484610c16565b90507fffffffffffffffffffffffffffffffffffffffffffffffffffffffffffffffff8114610e355781811015610e25578281836040517ffb8f41b2000000000000000000000000000000000000000000000000000000008152600401610e1c93929190612054565b60405180910390fd5b610e34848484840360006112f7565b5b50505050565b600073ffffffffffffffffffffffffffffffffffffffff168373ffffffffffffffffffffffffffffffffffffffff1603610ead5760006040517f96c6fd1e000000000000000000000000000000000000000000000000000000008152600401610ea49190611b47565b60405180910390fd5b600073ffffffffffffffffffffffffffffffffffffffff168273ffffffffffffffffffffffffffffffffffffffff1603610f1f5760006040517fec442f05000000000000000000000000000000000000000000000000000000008152600401610f169190611b47565b60405180910390fd5b610f2a8383836114ce565b505050565b610f4081610f3b610d8d565b6116f3565b50565b6000610f4f8383610938565b61102a5760016005600085815260200190815260200160002060000160008473ffffffffffffffffffffffffffffffffffffffff1673ffffffffffffffffffffffffffffffffffffffff16815260200190815260200160002060006101000a81548160ff021916908315150217905550610fc7610d8d565b73ffffffffffffffffffffffffffffffffffffffff168273ffffffffffffffffffffffffffffffffffffffff16847f2f8788117e7eff1d82e926ec794901d17c78024a50270940304540a733656f0d60405160405180910390a46001905061102f565b600090505b92915050565b61103d610d8d565b73ffffffffffffffffffffffffffffffffffffffff1661105b61090e565b73ffffffffffffffffffffffffffffffffffffffff16146110ba5761107e610d8d565b6040517f118cdaa70000000000000000000000000000000000000000000000000000000081526004016110b19190611b47565b60405180910390fd5b565b60006110c88383610938565b156111a45760006005600085815260200190815260200160002060000160008473ffffffffffffffffffffffffffffffffffffffff1673ffffffffffffffffffffffffffffffffffffffff16815260200190815260200160002060006101000a81548160ff021916908315150217905550611141610d8d565b73ffffffffffffffffffffffffffffffffffffffff168273ffffffffffffffffffffffffffffffffffffffff16847ff6391f5c32d9c69d2a47ea670b442974b53935d1edc7fd64eb21e047a839171b60405160405180910390a4600190506111a9565b600090505b92915050565b6000600660009054906101000a900473ffffffffffffffffffffffffffffffffffffffff16905081600660006101000a81548173ffffffffffffffffffffffffffffffffffffffff021916908373ffffffffffffffffffffffffffffffffffffffff1602179055508173ffffffffffffffffffffffffffffffffffffffff168173ffffffffffffffffffffffffffffffffffffffff167f8be0079c531659141344cd1fd0a4f28419497f9722a3daafe3b4186f6b6457e060405160405180910390a35050565b600073ffffffffffffffffffffffffffffffffffffffff168273ffffffffffffffffffffffffffffffffffffffff16036112e75760006040517fec442f050000000000000000000000000000000000000000000000000000000081526004016112de9190611b47565b60405180910390fd5b6112f3600083836114ce565b5050565b600073ffffffffffffffffffffffffffffffffffffffff168473ffffffffffffffffffffffffffffffffffffffff16036113695760006040517fe602df050000000000000000000000000000000000000000000000000000000081526004016113609190611b47565b60405180910390fd5b600073ffffffffffffffffffffffffffffffffffffffff168373ffffffffffffffffffffffffffffffffffffffff16036113db5760006040517f94280d620000000000000000000000000000000000000000000000000000000081526004016113d29190611b47565b60405180910390fd5b81600160008673ffffffffffffffffffffffffffffffffffffffff1673ffffffffffffffffffffffffffffffffffffffff16815260200190815260200160002060008573ffffffffffffffffffffffffffffffffffffffff1673ffffffffffffffffffffffffffffffffffffffff1681526020019081526020016000208190555080156114c8578273ffffffffffffffffffffffffffffffffffffffff168473ffffffffffffffffffffffffffffffffffffffff167f8c5be1e5ebec7d5bd14f71427d1e84f3dd0314c0f7b2291e5b200ac8c7c3b925846040516114bf9190611999565b60405180910390a35b50505050565b600073ffffffffffffffffffffffffffffffffffffffff168373ffffffffffffffffffffffffffffffffffffffff1603611520578060026000828254611514919061208b565b925050819055506115f3565b60008060008573ffffffffffffffffffffffffffffffffffffffff1673ffffffffffffffffffffffffffffffffffffffff168152602001908152602001600020549050818110156115ac578381836040517fe450d38c0000000000000000000000000000000000000000000000000000000081526004016115a393929190612054565b60405180910390fd5b8181036000808673ffffffffffffffffffffffffffffffffffffffff1673ffffffffffffffffffffffffffffffffffffffff16815260200190815260200160002081905550505b600073ffffffffffffffffffffffffffffffffffffffff168273ffffffffffffffffffffffffffffffffffffffff160361163c5780600260008282540392505081905550611689565b806000808473ffffffffffffffffffffffffffffffffffffffff1673ffffffffffffffffffffffffffffffffffffffff168152602001908152602001600020600082825401925050819055505b8173ffffffffffffffffffffffffffffffffffffffff168373ffffffffffffffffffffffffffffffffffffffff167fddf252ad1be2c89b69c2b068fc378daa952ba7f163c4a11628f55a4df523b3ef836040516116e69190611999565b60405180910390a3505050565b6116fd8282610938565b6117405780826040517fe2517d3f0000000000000000000000000000000000000000000000000000000081526004016117379291906120bf565b60405180910390fd5b5050565b600080fd5b60007fffffffff0000000000000000000000000000000000000000000000000000000082169050919050565b61177e81611749565b811461178957600080fd5b50565b60008135905061179b81611775565b92915050565b6000602082840312156117b7576117b6611744565b5b60006117c58482850161178c565b91505092915050565b60008115159050919050565b6117e3816117ce565b82525050565b60006020820190506117fe60008301846117da565b92915050565b600081519050919050565b600082825260208201905092915050565b60005b8381101561183e578082015181840152602081019050611823565b60008484015250505050565b6000601f19601f8301169050919050565b600061186682611804565b611870818561180f565b9350611880818560208601611820565b6118898161184a565b840191505092915050565b600060208201905081810360008301526118ae818461185b565b905092915050565b600073ffffffffffffffffffffffffffffffffffffffff82169050919050565b60006118e1826118b6565b9050919050565b6118f1816118d6565b81146118fc57600080fd5b50565b60008135905061190e816118e8565b92915050565b6000819050919050565b61192781611914565b811461193257600080fd5b50565b6000813590506119448161191e565b92915050565b6000806040838503121561196157611960611744565b5b600061196f858286016118ff565b925050602061198085828601611935565b9150509250929050565b61199381611914565b82525050565b60006020820190506119ae600083018461198a565b92915050565b6000806000606084860312156119cd576119cc611744565b5b60006119db868287016118ff565b93505060206119ec868287016118ff565b92505060406119fd86828701611935565b9150509250925092565b6000819050919050565b611a1a81611a07565b8114611a2557600080fd5b50565b600081359050611a3781611a11565b92915050565b600060208284031215611a5357611a52611744565b5b6000611a6184828501611a28565b91505092915050565b611a7381611a07565b82525050565b6000602082019050611a8e6000830184611a6a565b92915050565b60008060408385031215611aab57611aaa611744565b5b6000611ab985828601611a28565b9250506020611aca858286016118ff565b9150509250929050565b600060ff82169050919050565b611aea81611ad4565b82525050565b6000602082019050611b056000830184611ae1565b92915050565b600060208284031215611b2157611b20611744565b5b6000611b2f848285016118ff565b91505092915050565b611b41816118d6565b82525050565b6000602082019050611b5c6000830184611b38565b92915050565b600060208284031215611b7857611b77611744565b5b6000611b8684828501611935565b91505092915050565b60008060408385031215611ba657611ba5611744565b5b6000611bb4858286016118ff565b9250506020611bc5858286016118ff565b9150509250929050565b7f4e487b7100000000000000000000000000000000000000000000000000000000600052602260045260246000fd5b60006002820490506001821680611c1657607f821691505b602082108103611c2957611c28611bcf565b5b50919050565b7f4e6f2045544820746f2077697468647261770000000000000000000000000000600082015250565b6000611c6560128361180f565b9150611c7082611c2f565b602082019050919050565b60006020820190508181036000830152611c9481611c58565b9050919050565b7f4e6f7420616c6c6f77656420746f206d696e7400000000000000000000000000600082015250565b6000611cd160138361180f565b9150611cdc82611c9b565b602082019050919050565b60006020820190508181036000830152611d0081611cc4565b9050919050565b7f546f6b656e2076616c75652073686f756c64206265206772656174657220746860008201527f616e203000000000000000000000000000000000000000000000000000000000602082015250565b6000611d6360248361180f565b9150611d6e82611d07565b604082019050919050565b60006020820190508181036000830152611d9281611d56565b9050919050565b7f4e487b7100000000000000000000000000000000000000000000000000000000600052601160045260246000fd5b6000611dd382611914565b9150611dde83611914565b9250828202611dec81611914565b91508282048414831517611e0357611e02611d99565b5b5092915050565b7f496e636f72726563742045544820616d6f756e74000000000000000000000000600082015250565b6000611e4060148361180f565b9150611e4b82611e0a565b602082019050919050565b60006020820190508181036000830152611e6f81611e33565b9050919050565b60008160011c9050919050565b6000808291508390505b6001851115611ecd57808604811115611ea957611ea8611d99565b5b6001851615611eb85780820291505b8081029050611ec685611e76565b9450611e8d565b94509492505050565b600082611ee65760019050611fa2565b81611ef45760009050611fa2565b8160018114611f0a5760028114611f1457611f43565b6001915050611fa2565b60ff841115611f2657611f25611d99565b5b8360020a915084821115611f3d57611f3c611d99565b5b50611fa2565b5060208310610133831016604e8410600b8410161715611f785782820a905083811115611f7357611f72611d99565b5b611fa2565b611f858484846001611e83565b92509050818404811115611f9c57611f9b611d99565b5b81810290505b9392505050565b6000611fb482611914565b9150611fbf83611ad4565b9250611fec7fffffffffffffffffffffffffffffffffffffffffffffffffffffffffffffffff8484611ed6565b905092915050565b7f4e487b7100000000000000000000000000000000000000000000000000000000600052601260045260246000fd5b600061202e82611914565b915061203983611914565b92508261204957612048611ff4565b5b828204905092915050565b60006060820190506120696000830186611b38565b612076602083018561198a565b612083604083018461198a565b949350505050565b600061209682611914565b91506120a183611914565b92508282019050808211156120b9576120b8611d99565b5b92915050565b60006040820190506120d46000830185611b38565b6120e16020830184611a6a565b939250505056fea2646970667358221220169d97acd918bec5dd5a40556341c9afd8b0b02c2f329cb28a2b74a12a914b6864736f6c63430008140033",
  "linkReferences": {},
  "deployedLinkReferences": {}
}